{"abi":[{"type":"constructor","inputs":[{"name":"_token","type":"address","internalType":"contract Token"},{"name":"_capacity","type":"uint256","internalType":"uint256"}],"stateMutability":"nonpayable"},{"type":"function","name":"isOverFilled","inputs":[],"outputs":[{"name":"","type":"bool","internalType":"bool"}],"stateMutability":"view"},{"type":"function","name":"status","inputs":[],"outputs":[{"name":"","type":"uint8","internalType":"enum VaultStatus"}],"stateMutability":"view"},{"type":"function","name":"token","inputs":[],"outputs":[{"name":"","type":"address","internalType":"contract Token"}],"stateMutability":"view"},{"type":"function","name":"updateStatus","inputs":[],"outputs":[],"stateMutability":"nonpayable"},{"type":"function","name":"withdraw","inputs":[],"outputs":[],"stateMutability":"nonpayable"}],"bytecode":{"object":"0x608060405234801561000f575f80fd5b5060405161096038038061096083398181016040528101906100319190610120565b815f806101000a81548173ffffffffffffffffffffffffffffffffffffffff021916908373ffffffffffffffffffffffffffffffffffffffff16021790555080600181905550505061015e565b5f80fd5b5f73ffffffffffffffffffffffffffffffffffffffff82169050919050565b5f6100ab82610082565b9050919050565b5f6100bc826100a1565b9050919050565b6100cc816100b2565b81146100d6575f80fd5b50565b5f815190506100e7816100c3565b92915050565b5f819050919050565b6100ff816100ed565b8114610109575f80fd5b50565b5f8151905061011a816100f6565b92915050565b5f80604083850312156101365761013561007e565b5b5f610143858286016100d9565b92505060206101548582860161010c565b9150509250929050565b6107f58061016b5f395ff3fe608060405234801561000f575f80fd5b5060043610610055575f3560e01c8063200d2ed2146100595780633ccfd60b146100775780635f60f4851461008157806364d4294e1461008b578063fc0c546a146100a9575b5f80fd5b6100616100c7565b60405161006e91906104e2565b60405180910390f35b61007f6100d9565b005b61008961026d565b005b6100936103ab565b6040516100a09190610515565b60405180910390f35b6100b161044c565b6040516100be91906105a8565b60405180910390f35b60025f9054906101000a900460ff1681565b6100e16103ab565b610120576040517f08c379a00000000000000000000000000000000000000000000000000000000081526004016101179061061b565b60405180910390fd5b5f6001545f8054906101000a900473ffffffffffffffffffffffffffffffffffffffff1673ffffffffffffffffffffffffffffffffffffffff166370a08231306040518263ffffffff1660e01b815260040161017c9190610659565b602060405180830381865afa158015610197573d5f803e3d5ffd5b505050506040513d601f19601f820116820180604052508101906101bb91906106a9565b6101c59190610701565b90505f8054906101000a900473ffffffffffffffffffffffffffffffffffffffff1673ffffffffffffffffffffffffffffffffffffffff1663a9059cbb33836040518363ffffffff1660e01b8152600401610221929190610743565b6020604051808303815f875af115801561023d573d5f803e3d5ffd5b505050506040513d601f19601f820116820180604052508101906102619190610794565b5061026a61026d565b50565b5f3090505f805f9054906101000a900473ffffffffffffffffffffffffffffffffffffffff1673ffffffffffffffffffffffffffffffffffffffff166370a08231836040518263ffffffff1660e01b81526004016102cb9190610659565b602060405180830381865afa1580156102e6573d5f803e3d5ffd5b505050506040513d601f19601f8201168201806040525081019061030a91906106a9565b9050600154811015610344575f60025f6101000a81548160ff0219169083600281111561033a5761033961046f565b5b02179055506103a7565b600154810361037c57600160025f6101000a81548160ff021916908360028111156103725761037161046f565b5b02179055506103a6565b6002805f6101000a81548160ff021916908360028111156103a05761039f61046f565b5b02179055505b5b5050565b5f6001545f8054906101000a900473ffffffffffffffffffffffffffffffffffffffff1673ffffffffffffffffffffffffffffffffffffffff166370a08231306040518263ffffffff1660e01b81526004016104079190610659565b602060405180830381865afa158015610422573d5f803e3d5ffd5b505050506040513d601f19601f8201168201806040525081019061044691906106a9565b11905090565b5f8054906101000a900473ffffffffffffffffffffffffffffffffffffffff1681565b7f4e487b71000000000000000000000000000000000000000000000000000000005f52602160045260245ffd5b600381106104ad576104ac61046f565b5b50565b5f8190506104bd8261049c565b919050565b5f6104cc826104b0565b9050919050565b6104dc816104c2565b82525050565b5f6020820190506104f55f8301846104d3565b92915050565b5f8115159050919050565b61050f816104fb565b82525050565b5f6020820190506105285f830184610506565b92915050565b5f73ffffffffffffffffffffffffffffffffffffffff82169050919050565b5f819050919050565b5f61057061056b6105668461052e565b61054d565b61052e565b9050919050565b5f61058182610556565b9050919050565b5f61059282610577565b9050919050565b6105a281610588565b82525050565b5f6020820190506105bb5f830184610599565b92915050565b5f82825260208201905092915050565b7f5661756c74206973206e6f74206f76657266696c6c65640000000000000000005f82015250565b5f6106056017836105c1565b9150610610826105d1565b602082019050919050565b5f6020820190508181035f830152610632816105f9565b9050919050565b5f6106438261052e565b9050919050565b61065381610639565b82525050565b5f60208201905061066c5f83018461064a565b92915050565b5f80fd5b5f819050919050565b61068881610676565b8114610692575f80fd5b50565b5f815190506106a38161067f565b92915050565b5f602082840312156106be576106bd610672565b5b5f6106cb84828501610695565b91505092915050565b7f4e487b71000000000000000000000000000000000000000000000000000000005f52601160045260245ffd5b5f61070b82610676565b915061071683610676565b925082820390508181111561072e5761072d6106d4565b5b92915050565b61073d81610676565b82525050565b5f6040820190506107565f83018561064a565b6107636020830184610734565b9392505050565b610773816104fb565b811461077d575f80fd5b50565b5f8151905061078e8161076a565b92915050565b5f602082840312156107a9576107a8610672565b5b5f6107b684828501610780565b9150509291505056fea26469706673582212203b5c39814e41e08f0de20d616b978d966d1c479ec7a9a747d696efa8a439868064736f6c63430008140033","linkReferences":{}},"methodIdentifiers":{"isOverFilled()":"64d4294e","status()":"200d2ed2","token()":"fc0c546a","updateStatus()":"5f60f485","withdraw()":"3ccfd60b"},"id":28}